{
  "contractName": "BailContract",
  "abi": [
    {
      "inputs": [
        {
          "internalType": "uint256",
          "name": "",
          "type": "uint256"
        }
      ],
      "name": "bails",
      "outputs": [
        {
          "internalType": "uint256",
          "name": "id",
          "type": "uint256"
        },
        {
          "internalType": "string",
          "name": "crime",
          "type": "string"
        },
        {
          "internalType": "string",
          "name": "section",
          "type": "string"
        },
        {
          "internalType": "string",
          "name": "bailStatus",
          "type": "string"
        },
        {
          "internalType": "string",
          "name": "bailAmount",
          "type": "string"
        },
        {
          "internalType": "string",
          "name": "duration",
          "type": "string"
        }
      ],
      "stateMutability": "view",
      "type": "function"
    },
    {
      "inputs": [
        {
          "internalType": "uint256",
          "name": "_id",
          "type": "uint256"
        },
        {
          "internalType": "string",
          "name": "_crime",
          "type": "string"
        },
        {
          "internalType": "string",
          "name": "_section",
          "type": "string"
        },
        {
          "internalType": "string",
          "name": "_bailStatus",
          "type": "string"
        },
        {
          "internalType": "string",
          "name": "_bailAmount",
          "type": "string"
        },
        {
          "internalType": "string",
          "name": "_duration",
          "type": "string"
        }
      ],
      "name": "addBail",
      "outputs": [],
      "stateMutability": "nonpayable",
      "type": "function"
    },
    {
      "inputs": [
        {
          "internalType": "uint256",
          "name": "_id",
          "type": "uint256"
        }
      ],
      "name": "getBail",
      "outputs": [
        {
          "components": [
            {
              "internalType": "uint256",
              "name": "id",
              "type": "uint256"
            },
            {
              "internalType": "string",
              "name": "crime",
              "type": "string"
            },
            {
              "internalType": "string",
              "name": "section",
              "type": "string"
            },
            {
              "internalType": "string",
              "name": "bailStatus",
              "type": "string"
            },
            {
              "internalType": "string",
              "name": "bailAmount",
              "type": "string"
            },
            {
              "internalType": "string",
              "name": "duration",
              "type": "string"
            }
          ],
          "internalType": "struct BailContract.Bail",
          "name": "",
          "type": "tuple"
        }
      ],
      "stateMutability": "view",
      "type": "function"
    },
    {
      "inputs": [],
      "name": "totalBails",
      "outputs": [
        {
          "internalType": "uint256",
          "name": "",
          "type": "uint256"
        }
      ],
      "stateMutability": "view",
      "type": "function"
    }
  ],
  "bytecode": "0x608060405234801561001057600080fd5b50610e71806100206000396000f3fe608060405234801561001057600080fd5b506004361061004c5760003560e01c80630c3818d314610051578063662caa8a1461006f57806373aa3271146100a4578063d6df4f37146100d4575b600080fd5b6100596100f0565b6040516100669190610c0a565b60405180910390f35b61008960048036038101906100849190610989565b6100fc565b60405161009b96959493929190610c25565b60405180910390f35b6100be60048036038101906100b99190610989565b6103f0565b6040516100cb9190610be8565b60405180910390f35b6100ee60048036038101906100e991906109b2565b610736565b005b60008080549050905090565b6000818154811061010c57600080fd5b906000526020600020906006020160009150905080600001549080600101805461013590610d83565b80601f016020809104026020016040519081016040528092919081815260200182805461016190610d83565b80156101ae5780601f10610183576101008083540402835291602001916101ae565b820191906000526020600020905b81548152906001019060200180831161019157829003601f168201915b5050505050908060020180546101c390610d83565b80601f01602080910402602001604051908101604052809291908181526020018280546101ef90610d83565b801561023c5780601f106102115761010080835404028352916020019161023c565b820191906000526020600020905b81548152906001019060200180831161021f57829003601f168201915b50505050509080600301805461025190610d83565b80601f016020809104026020016040519081016040528092919081815260200182805461027d90610d83565b80156102ca5780601f1061029f576101008083540402835291602001916102ca565b820191906000526020600020905b8154815290600101906020018083116102ad57829003601f168201915b5050505050908060040180546102df90610d83565b80601f016020809104026020016040519081016040528092919081815260200182805461030b90610d83565b80156103585780601f1061032d57610100808354040283529160200191610358565b820191906000526020600020905b81548152906001019060200180831161033b57829003601f168201915b50505050509080600501805461036d90610d83565b80601f016020809104026020016040519081016040528092919081815260200182805461039990610d83565b80156103e65780601f106103bb576101008083540402835291602001916103e6565b820191906000526020600020905b8154815290600101906020018083116103c957829003601f168201915b5050505050905086565b6103f8610833565b60008281548110610432577f4e487b7100000000000000000000000000000000000000000000000000000000600052603260045260246000fd5b90600052602060002090600602016040518060c00160405290816000820154815260200160018201805461046590610d83565b80601f016020809104026020016040519081016040528092919081815260200182805461049190610d83565b80156104de5780601f106104b3576101008083540402835291602001916104de565b820191906000526020600020905b8154815290600101906020018083116104c157829003601f168201915b505050505081526020016002820180546104f790610d83565b80601f016020809104026020016040519081016040528092919081815260200182805461052390610d83565b80156105705780601f1061054557610100808354040283529160200191610570565b820191906000526020600020905b81548152906001019060200180831161055357829003601f168201915b5050505050815260200160038201805461058990610d83565b80601f01602080910402602001604051908101604052809291908181526020018280546105b590610d83565b80156106025780601f106105d757610100808354040283529160200191610602565b820191906000526020600020905b8154815290600101906020018083116105e557829003601f168201915b5050505050815260200160048201805461061b90610d83565b80601f016020809104026020016040519081016040528092919081815260200182805461064790610d83565b80156106945780601f1061066957610100808354040283529160200191610694565b820191906000526020600020905b81548152906001019060200180831161067757829003601f168201915b505050505081526020016005820180546106ad90610d83565b80601f01602080910402602001604051908101604052809291908181526020018280546106d990610d83565b80156107265780601f106106fb57610100808354040283529160200191610726565b820191906000526020600020905b81548152906001019060200180831161070957829003601f168201915b5050505050815250509050919050565b60006040518060c001604052808881526020018781526020018681526020018581526020018481526020018381525090806001815401808255809150506001900390600052602060002090600602016000909190919091506000820151816000015560208201518160010190805190602001906107b4929190610869565b5060408201518160020190805190602001906107d1929190610869565b5060608201518160030190805190602001906107ee929190610869565b50608082015181600401908051906020019061080b929190610869565b5060a0820151816005019080519060200190610828929190610869565b505050505050505050565b6040518060c001604052806000815260200160608152602001606081526020016060815260200160608152602001606081525090565b82805461087590610d83565b90600052602060002090601f01602090048101928261089757600085556108de565b82601f106108b057805160ff19168380011785556108de565b828001600101855582156108de579182015b828111156108dd5782518255916020019190600101906108c2565b5b5090506108eb91906108ef565b5090565b5b808211156109085760008160009055506001016108f0565b5090565b600061091f61091a84610cda565b610ca9565b90508281526020810184848401111561093757600080fd5b610942848285610d41565b509392505050565b600082601f83011261095b57600080fd5b813561096b84826020860161090c565b91505092915050565b60008135905061098381610e24565b92915050565b60006020828403121561099b57600080fd5b60006109a984828501610974565b91505092915050565b60008060008060008060c087890312156109cb57600080fd5b60006109d989828a01610974565b965050602087013567ffffffffffffffff8111156109f657600080fd5b610a0289828a0161094a565b955050604087013567ffffffffffffffff811115610a1f57600080fd5b610a2b89828a0161094a565b945050606087013567ffffffffffffffff811115610a4857600080fd5b610a5489828a0161094a565b935050608087013567ffffffffffffffff811115610a7157600080fd5b610a7d89828a0161094a565b92505060a087013567ffffffffffffffff811115610a9a57600080fd5b610aa689828a0161094a565b9150509295509295509295565b6000610abe82610d0a565b610ac88185610d15565b9350610ad8818560208601610d50565b610ae181610e13565b840191505092915050565b6000610af782610d0a565b610b018185610d26565b9350610b11818560208601610d50565b610b1a81610e13565b840191505092915050565b600060c083016000830151610b3d6000860182610bca565b5060208301518482036020860152610b558282610ab3565b91505060408301518482036040860152610b6f8282610ab3565b91505060608301518482036060860152610b898282610ab3565b91505060808301518482036080860152610ba38282610ab3565b91505060a083015184820360a0860152610bbd8282610ab3565b9150508091505092915050565b610bd381610d37565b82525050565b610be281610d37565b82525050565b60006020820190508181036000830152610c028184610b25565b905092915050565b6000602082019050610c1f6000830184610bd9565b92915050565b600060c082019050610c3a6000830189610bd9565b8181036020830152610c4c8188610aec565b90508181036040830152610c608187610aec565b90508181036060830152610c748186610aec565b90508181036080830152610c888185610aec565b905081810360a0830152610c9c8184610aec565b9050979650505050505050565b6000604051905081810181811067ffffffffffffffff82111715610cd057610ccf610de4565b5b8060405250919050565b600067ffffffffffffffff821115610cf557610cf4610de4565b5b601f19601f8301169050602081019050919050565b600081519050919050565b600082825260208201905092915050565b600082825260208201905092915050565b6000819050919050565b82818337600083830152505050565b60005b83811015610d6e578082015181840152602081019050610d53565b83811115610d7d576000848401525b50505050565b60006002820490506001821680610d9b57607f821691505b60208210811415610daf57610dae610db5565b5b50919050565b7f4e487b7100000000000000000000000000000000000000000000000000000000600052602260045260246000fd5b7f4e487b7100000000000000000000000000000000000000000000000000000000600052604160045260246000fd5b6000601f19601f8301169050919050565b610e2d81610d37565b8114610e3857600080fd5b5056fea26469706673582212205bf63f8b045f9d41dd507ced7826e440ab644c8b810f2d14a0f0da4f7c270a3964736f6c63430008000033",
  "immutableReferences": {},
  "source": "// SPDX-License-Identifier: MIT\r\npragma solidity ^0.8.0;\r\n\r\ncontract BailContract {\r\n    struct Bail {\r\n        uint id;\r\n        string crime;\r\n        string section;\r\n        string bailStatus;\r\n        string bailAmount;\r\n        string duration;\r\n    }\r\n\r\n    Bail[] public bails;\r\n\r\n    function addBail(\r\n        uint _id,\r\n        string memory _crime,\r\n        string memory _section,\r\n        string memory _bailStatus,\r\n        string memory _bailAmount,\r\n        string memory _duration\r\n    ) public {\r\n        bails.push(Bail(_id, _crime, _section, _bailStatus, _bailAmount, _duration));\r\n    }\r\n\r\n    function getBail(uint _id) public view returns (Bail memory) {\r\n        return bails[_id];\r\n    }\r\n\r\n    function totalBails() public view returns (uint) {\r\n        return bails.length;\r\n    }\r\n}\r\n",
  "sourcePath": "E:\\Stash\\judicio\\blockchain\\contracts\\BailContract.sol",
  "compiler": {
    "name": "solc",
    "version": "0.8.0+commit.c7dfd78e.Emscripten.clang"
  },
  "schemaVersion": "3.4.16",
  "updatedAt": "2024-10-12T07:30:52.854Z",
  "devdoc": {
    "kind": "dev",
    "methods": {},
    "version": 1
  },
  "userdoc": {
    "kind": "user",
    "methods": {},
    "version": 1
  }
}